:020000040800F2
:10000000986600205D020008CF3400089D3100088A
:10001000CD340008DD090008055800080000000084
:100020000000000000000000000000009D0100082A
:10003000FD0B000800000000F901000879380008F5
:1000400077020008770200087702000877020008AC
:10005000770200087702000877020008770200089C
:10006000770200087702000877020008770200088C
:10007000A90A000877020008770200087702000842
:10008000770200087702000877020008770200086C
:10009000E1090008ED09000877020008770200086E
:1000A000770200087702000877020008770200084C
:1000B000770200087702000877020008770200083C
:1000C000770200087702000877020008770200082C
:1000D000770200087702000877020008513C000808
:1000E000770200087702000877020008770200080C
:1000F00077020008770200087702000877020008FC
:1001000077020008770200087702000877020008EB
:1001100077020008770200087702000849390008D2
:1001200077020008B50A0008770200087702000885
:1001300077020008770200087702000877020008BB
:10014000F9090008050A000877020008D134000800
:1001500077020008C10A000877020008053D000880
:10016000770200087702000877020008770200088B
:1001700077020008770200087702000800000000FC
:100180007702000877020008DFF80CD000F0DAFBF5
:100190000048004777750008986600202C4B1968C6
:1001A0000868B0E8F04F80F30988BFF36F8F4FF015
:1001B000000080F3118870470000000008480068C4
:1001C000006880F308884FF0000080F3148862B65E
:1001D00061B6BFF34F8FBFF36F8F00DF00BF00BF6B
:1001E00008ED00E0DFF80C00016841F470010160E7
:1001F000704700BF88ED00E0EFF30980BFF36F8F19
:10020000134B1A681EF0100F08BF20ED108A20E96A
:10021000F04F106009B44FF0500080F31188BFF325
:100220004F8FBFF36F8F07F0E7FD4FF0000080F3B3
:10023000118809BC19680868B0E8F04F1EF0100F6B
:1002400008BFB0EC108A80F30988BFF36F8F704746
:1002500084000020EFF305807047000006488047C7
:1002600006480047FEE7FEE7FEE7FEE7FEE7FEE79B
:10027000FEE7FEE7FEE7FEE73939000889010008DE
:100280002DE9F05F0546002092469B4688460646CB
:10029000814640241BE0284641464746224600F05E
:1002A0001BFA53465A46C01A914110D311461846BC
:1002B000224600F002FA2D1A67EB01084F4622464B
:1002C0000120002100F0F9F917EB00094E41201E32
:1002D000A4F10104DFDC484631462A464346BDE826
:1002E000F09F40EA01039B0703D009E008C9121FF1
:1002F00008C0042AFAD203E011F8013B00F8013BE0
:10030000521EF9D27047D2B201E000F8012B491E0B
:10031000FBD270470022F6E710B513460A460446A2
:100320001946FFF7F0FF204610BD2DE9FE4F80462D
:1003300081EA0300C00F0C46009021F0004123F039
:100340000045B8EB0200A94105D24046214690463F
:100350001C460B46024623F00040104347D0270DB1
:10036000C7F30A00C3F30A510290401A01904028D3
:100370006BDAC3F3130040F4801B0098924620B15F
:100380000023D2EB030A63EB0B0B01985946C0F133
:100390004002504600F091F906460D465046594637
:1003A000019A00F0A9F910EB08006141002487EAE6
:1003B000115284EAE7731A4340D0009A62B3019A5B
:1003C000012A4FEA075215DC001B61EB02014FF0D6
:1003D000004202EA0752CDE90042001C41F58011BB
:1003E00032462B4600F0E0F903B0BDE8F08F4046FE
:1003F0002146F9E7001B61EB0201001C41F5801367
:1004000000185B412018A2F5001747EB030140EAF2
:10041000D570B6196D4111E06D084FEA360645EA10
:10042000C0754FEA0752001B61EB0201001C41F549
:10043000801149084FEA30000019514132462B46DD
:1004400003B0BDE8F04F00F0A0B9009801224000D1
:100450000023D0EB020263EBE073009821464FEAE1
:10046000E074B8EB000061EB0401E9E783F00043BE
:100470005BE781F0004158E72DE9FE4F81EA030474
:1004800004F0004421F0004100944FF0000B23F0F1
:10049000004350EA01045ED052EA03045BD0C3F388
:1004A0000A54C1F30A552C44A4F2F3340194A0FB7E
:1004B0000254C1F3130141F48011C3F3130343F455
:1004C000801301FB024400FB034E840A970A44EAAE
:1004D000815447EA8357A4FB076802958D0A05FB00
:1004E00007854FEA932C04FB0C542705029D4FEA25
:1004F000065847EA1637B5EB08056EEB070C870E72
:10050000920E47EA811742EA8312A7FB0201B6EB7B
:100510000B0164EB00042B0D43EA0C335E1844EB33
:100520001C50DA465146E7FB0201C5F313044FEABB
:100530000B3343EA14534FEA0432019C43EA0603A7
:10054000A4F10C040294009CCDE900B400F02CF955
:1005500003B0BDE8F08F00200146F9E72DE9F04D2A
:1005600081EA030404F0004B21F0004514464FF0EB
:10057000000A23F0004150EA050220D054EA0102AB
:100580001DD0C5F30A570246C5F31303C1F3130088
:10059000C1F30A5640F4801543F48013A7EB060814
:1005A000101BD64608F2FD3873EB050002D308F1A4
:1005B000010801E092185B41B8F1000F03DA002056
:1005C0000146BDE8F08D00204FF4801106468446B8
:1005D0000EE0171B73EB050705D3121B63EB050336
:1005E00006434CEA010C49084FEA300092185B417F
:1005F00050EA0107EDD152EA030012D082EA04006A
:1006000083EA0501084305D0101BAB4106D2012245
:10061000002306E000224FF0004302E06FF00102E9
:1006200053101AEB06004CEB085110EB0A0041EB9B
:100630000B01BDE8F04D00F0A8B80EB5C10F80EA7F
:10064000E0700844CA07002140F233438DE80E00F1
:100650000A460B4600F0A8F803B000BD00F00042C7
:1006600030F000400AD0C10D01F56071C0F31600F2
:1006700042EA0151C2084007114370470020014679
:10068000704701F0004330B421F0004150EA01020C
:1006900006D00A0DA2F56072C1F31301002A02DC34
:1006A00030BC00207047440F44EAC104C100E01888
:1006B00030BC00EBC25000F031B8202A04DB203AF5
:1006C00000FA02F1002070479140C2F1200320FAA5
:1006D00003F3194390407047202A04DB203A21FAA3
:1006E00002F00021704721FA02F3D040C2F120024B
:1006F0009140084319467047202A06DBCB17203A61
:1007000041FA02F043EAE07306E041FA02F3D04016
:10071000C2F1200291400843194670470029A8BF42
:100720007047401C490008BF20F00100704710B41A
:10073000B0FA80FC00FA0CF050EA010404BF10BCCF
:10074000704749B1CCF1200421FA04F411FA0CF1FC
:1007500018BF012121430843A3EB0C01CB1D4FEA35
:1007600000614FEA102042BF002010BC704700EB30
:10077000C35010440029A4BF10BC7047401C49005E
:1007800008BF20F0010010BC704710B5141E73F1B3
:10079000000408DA401C41F1000192185B411A4341
:1007A00001D120F0010010BD2DE9F04D92469B468D
:1007B00011B1B1FA81F202E0B0FA80F22032904633
:1007C000FFF77BFF04460F4640EA0A0041EA0B01AF
:1007D00053465A46084313D0114653EA010019D034
:1007E000C8F140025046FFF777FF05460E465046D7
:1007F00059464246FFF761FF084305D0012004E057
:1008000020463946BDE8F08D0020054346EAE076F3
:100810002C4337430A986305E40AA0EB0800002242
:10082000FD0A44EA47540A3002D500200146E9E7B0
:10083000010510196941DDE9084500196941BDE864
:10084000F04DA2E770B521F0004303430CD0C1F393
:100850000A550024D5EB040564EB0403D617AD1A42
:10086000B34102DB0020014670BD201841EB02516C
:1008700070BD2DE9F04D00231A461B1A8A4103DB97
:1008800000200146BDE8F08DC1F30A52C1F3130107
:1008900041F480154FF0000BD10702D100186D41D3
:1008A000521E0027044640F2FF11384601EB620A4F
:1008B0003E468046024600204FF48011FFF70CFFB1
:1008C000C2197141BB1846EB0100B4EB030C75EB88
:1008D000000C04D3E41A65EB000517460E462419F4
:1008E00008F101006D4180463428E3DDF91946EB3B
:1008F0000600091BA84103D24FF0FF32134601E066
:10090000002213461BEB070046EB0A51BDE8F04DF1
:10091000FFF73BBF30B5041E71F1000404DB4FF05C
:100920000044404264EB0101141E73F1000405DB36
:100930001C464FF00043524263EB0403994208BF48
:10094000904230BD064C074D06E0E06840F00103E0
:1009500094E8070098471034AC42F6D3FFF718FC30
:100960004C8300086C83000870B58C1810F8015B8C
:1009700015F0070301D110F8013B2A1106D110F838
:10098000012B03E010F8016B01F8016B5B1EF9D13C
:100990002B0705D40023521E0DD401F8013BFAE7C2
:1009A00010F8013BCB1A921C03E013F8015B01F82D
:1009B000015B521EF9D5A142D8D3002070BDB4EE20
:1009C000E00AF1EE10FA01DD30EE600AB5EEC00A81
:1009D000F1EE10FA01D230EE200A7047FEE7000077
:1009E000014800F084BA000038040020014800F0FB
:1009F0007EBA000038040020014800F078BA0000F8
:100A000060040020014800F072BA00006004002079
:100A1000002070470020704710B5002204490548A7
:100A200003F05CFB0449034803F04BFB002010BDBE
:100A3000A4130020C8060020A40B002010B5014616
:100A4000034803F03EFB024803F014FB002010BDF6
:100A5000C806002000207047064991ED000A80ED8D
:100A6000000A91ED010A80ED010A91ED020A80ED84
:100A7000020A70479860002010B50246FFF7ECFFAD
:100A800092EC030ABDE8104006F0F6B806F0C8F88C
:100A900006F0CAF90348FFF7EFFF012006F08FFDCB
:100AA000F8E7000080600020014800F011BD000060
:100AB00060050020014800F00BBD0000C0050020CB
:100AC000014800F005BD0000200600200168182341
:100AD000CAB2103AB2FBF3F2054B6FF30901032AD5
:100AE0009B5CC36500D9091D8165084670470000FD
:100AF000DC81000810B5014600208B698A6A4FF03E
:100B0000C07453B1B3F5005F15D072B1012A0CD097
:100B1000022A0AD0032A09D104E01AB1012A06D018
:100B2000022A03D1C96AC90100D5012010BDC96AD2
:100B3000A142FAD010BD002AF7D0012AF2D0022A31
:100B4000F3D0032AF3D010BD074808B540680090E1
:100B5000014606480269914202D2C168491CC1603F
:100B60000099016108BD0000001000E0980100201C
:100B700000B50E492DED028B81B0496800910168E6
:100B8000009A511A00EE101A0949F8EE400A91ED48
:100B9000000A0260B8EE400A80EE808AFFF7D4FFB8
:100BA00001B0B0EE480ABDEC028B00BD001000E0C1
:100BB000980100200D490A6842F080720A600C49D1
:100BC00000224A600B6843F001030B6009494FF4AF
:100BD0007A734843B0FBF3F30749C1E90003054BBF
:100BE000B0FBF3F0C1E9020270470000FCED00E049
:100BF000001000E040420F0098010020704772B6DC
:100C0000FEE7012006F0DBFCFBE790F82020012A3C
:100C100007D0022A05D0416A41F4802141620120B7
:100C20007047006842690A43426100207047F0B58E
:100C300090F820500468A468012D05D0022D03D03F
:100C4000416A41F480214DE014F0406F01D1E5008C
:100C500045D5C4F301640125A5401D608D684FF49E
:100C6000C0739DB1CE6835434E6845EAC605066837
:100C700003EB0417F5514FF4C275076805EB041533
:100C80000E697E51097D012905D009E00E88CD68E5
:100C900045EA4655EBE701684E5946F480764E51D9
:100CA0001179D2F805504FF4C67641EA052105685E
:100CB00006EB0416A9511178D2F801204FF4C4753F
:100CC00041EA0221026805EB04155151006803EB6B
:100CD0000411425842F0010242500020F0BD416A26
:100CE00041F4001141620120F0BD000010B590F800
:100CF0002020012A07D0022A05D0416A41F4802130
:100D00004162012010BD3B48D0F8002242F00102B0
:100D1000C0F80022D0F8002222F47C52C0F8002251
:100D2000D0F800224B6A42EA0322C0F800220A7D72
:100D300002F01F0301229A40D0F81C329343C0F8FE
:100D40001C32CB69B3B9D0F80C329343C0F80C32E3
:100D50008C894B6864F31F434C6900EBC404C4F8EE
:100D600040320C890B6864F31F434C6900EBC404E8
:100D7000C4F84432CB69012B16D1D0F80C3213439E
:100D8000C0F80C320C884B6864F31F434C6900EBCD
:100D9000C404C4F840320C89CB6864F31F434C6927
:100DA00000EBC404C4F844328B69002BD0F8043241
:100DB0000ED01343C0F804320B69002BD0F8143264
:100DC00008D01343C0F81432096A012904D008E09E
:100DD0009343EFE79343F5E7D0F81C121143C0F8B3
:100DE0001C12D0F8001221F00101C0F800120020FE
:100DF00010BD000000640040704770B590F82040BE
:100E0000012C05D0022C03D0416A41F4802128E056
:100E1000046809B32469A40720D04FF4D874056886
:100E200004EB01142D5915F00405956005682D5942
:100E30001AD0ED08556005682C5904F00204D460FE
:100E40004FF4DA74056804EB01142E5906F00F060E
:100E5000082E0CD308250DE0E468DCE7416A41F474
:100E600000114162012070BD6D0D1560E3E72D5941
:100E700005F00F05156105682D59C5F30725956126
:100E800005682C59240C54614FF4DC72046802EBA1
:100E90000112A4581C700468A458240A5C700468E9
:100EA000A458240C9C700468A258120EDA704FF4F7
:100EB000DE72046802EB0112A4581C710468A45885
:100EC000240A5C710468A458240C9C710468A2581C
:100ED000120EDA71006829B1016941F02001016147
:100EE000002070BDC16841F02001C160F8E72DE924
:100EF000F05F0546006800244669D0F804908768D2
:100F0000D0F80CB0D0F810A0D0F81880F10748D075
:100F1000F90714D001218160B80703D5284600F0F5
:100F200076FA0CE0780702D54FF4006407E0380742
:100F300002D54FF4805402E0284600F067FAF80525
:100F400016D529684FF480708860B80503D5284607
:100F500000F05FFA0CE0780502D544F4005407E095
:100F6000380502D544F4804402E0284600F050FAE7
:100F7000F80316D529684FF480308860B80303D58C
:100F8000284600F048FA0CE0780302D544F4004407
:100F900007E0380302D544F4803402E0284600F02C
:100FA00039FA300707D55FEACB6004D529681020ED
:100FB00044F40074C86070074FF0080707D55FEA73
:100FC0000B7004D52868C760284600F0A9F9B0075F
:100FD00006D52868C068800702D0284600F0A2F92C
:100FE000700607D55FEACA6004D52968102044F46A
:100FF00080640861B00607D55FEA0A7004D52868E6
:101000000761284600F0D2F9F00606D52868006985
:10101000800702D0284600F0CAF9B00308D55FEA7D
:10102000C96005D5296810204860284600F0C0F93D
:10103000F00307D55FEA097004D5286847602846A1
:1010400000F0EAF9300446D55FEA497040D5F00572
:1010500004D55FEAC87001D044F00104B00504D59E
:101060005FEA887001D544F00204700504D55FEA98
:10107000487001D544F00404300529D518F0700FEC
:1010800026D008F07000402815D006DC102809D0C2
:1010900020280AD0302816D10AE050280ED0602827
:1010A00011D10EE044F008040DE044F010040AE011
:1010B00044F0200407E044F0400404E044F08004DD
:1010C00001E044F480742868816921F07001816135
:1010D000296804204860002C05D0686A20436862B3
:1010E0002846FFF789FEBDE8F09F70B5040003D0E5
:1010F00094F8200010B104E0012070BD204600F0FB
:1011000081F82068016841F00101016000F02AFCCB
:101110000546052604E000F025FC401B0A2811D8EE
:1011200020684068C007F6D02068016821F00201FD
:10113000016000F017FC05460BE000F013FC401BBB
:101140000A2806D9606A40F40030606284F82060A2
:10115000D2E7206840688007EFD4207E012820680D
:1011600001683DD021F080010160607E0128206887
:10117000016838D021F040010160A07E012820687C
:10118000016833D021F020010160E07E0128206851
:1011900001682ED041F010010160207F01282068F5
:1011A000016829D021F008010160607F01282068D2
:1011B000016824D021F004010160D4E90201084350
:1011C000D4E90412114308436168491E08432168A9
:1011D000C86100206062012084F82000002070BDFA
:1011E00041F08001C0E741F04001C5E741F0200136
:1011F000CAE721F01001CFE741F00801D4E741F040
:101200000401D9E7F0B587B0044614216846FFF71A
:1012100081F83E4B3E48DFF8F0E01968D4F800C092
:101220003B4A03250226092710300024491CF445B7
:101230002AD11960012907D1016841F000710160CC
:10124000006800F000700590106840F00800106021
:101250001068CDE9005600F00800CDE90470694639
:101260002C48CDE9024500F07FFA00220521142028
:1012700000F016FC142000F005FC002205211520CA
:1012800000F00EFC15203BE0DFF88CE0F44539D18E
:10129000D0F800C04CF0806CC0F800C0D0F800C09E
:1012A00001290CF0806CCDF814C0196007D10168D9
:1012B00041F000710160006800F000700590106856
:1012C00040F002001060106802AB00F002000590D0
:1012D0004FF48250CDE9000683E8B00069460F481C
:1012E00000F042FA00220521402000F0D9FB402006
:1012F00000F0C8FB00220521412000F0D1FB412075
:1013000000F0C0FB07B0F0BD006400400C000020FE
:1013100030380240000C02400068004000040240E7
:101320007047000010B504461C4B1D4A00211D48A3
:10133000FFF763FD002830D11B49206888422CD17B
:1013400017480068A0F20120082826D2DFE800F044
:10135000040608250A0C250E002008E0012006E0FE
:10136000022004E0042002E0052000E007200C4AEF
:1013700000EB80031C3202EB430132F813000881BA
:101380000648048864BA22F81340428852BA4A8058
:10139000828852BA8A808079887110BD84010020C9
:1013A000B05F0020380400200064004070477047A0
:1013B0007047000070B5044690F82000012804D062
:1013C000606A40F40020606218E0022084F8200087
:1013D0002068016821F00101016000F0C3FA0546B0
:1013E0000EE000BF00F0BEFA401B0A2808D9606A70
:1013F00040F400306062052084F82000012070BDB8
:1014000020684068C007EDD1606270BD70477047CA
:10141000704770477047704770472DE9F0410446A8
:10142000876D00F09FFA064694F8350000250228E3
:1014300006D08020606584F834500120BDE8F0813A
:101440002068016821F0160101602068416921F0DF
:1014500080014161206C08B9A06C20B1206801684E
:1014600021F0080101602068016821F0010101609C
:101470000CE000F077FA801B052807D92020606572
:10148000032084F8350084F83450D7E720680068DA
:10149000C007EED194F85C103F208840B86001206E
:1014A00084F8350084F834500020C7E790F83510F0
:1014B000022903D08021416501207047052180F871
:1014C00035100068016821F00101016000207047BB
:1014D0002DE9F84304464FF00009CDF80090634829
:1014E0004FF41651A56D0068B0FBF1F72E6894F823
:1014F0005C10082000FA01F131420FD021680A681F
:1015000052070BD50A6822F004020A6094F85C10B6
:101510008840A860606D40F00100606594F85C1040
:101520004FF0010808FA01F0304208D021684969FB
:10153000090604D5A860606D40F00200606594F86B
:101540005C1004208840304208D02168096889076F
:1015500004D5A860606D40F00400606594F85C10EC
:1015600010208840304218D021680968090714D536
:10157000A86020680168490304D50068000308D505
:10158000A16C07E00168C90503D4016821F00801D6
:101590000160216C09B12046884794F85C10202036
:1015A0008840304231D021680968C9062DD5A8602D
:1015B00094F8350005282068016806D0490347D50E
:1015C000006800031DD4616C1CE021F0160101606D
:1015D0002068416921F080014161206C08B9A06C4C
:1015E00020B12068016821F00801016094F85C10C6
:1015F0003F208840A86084F8358084F83490216DBD
:101600001FE0E16B09B120468847606D00282BD0B0
:10161000606DC00714D0052084F83500206801688B
:1016200021F0010101600098401C0090B84203D8ED
:1016300020680068C007F6D184F8358084F83490BB
:10164000E16C002910D001B02046BDE8F043084706
:101650000168C905D5D4016821F01001016084F842
:10166000358084F83490CCE7BDE8F8838000002012
:101670002DE9F041044600F075F906465CB1022000
:1016800084F83500002584F834502068016821F082
:10169000010101600DE00120BDE8F08100F062F978
:1016A000801B052805D920206065032084F83500BB
:1016B000F2E720680068C007F0D12268116820486E
:1016C0000140D4E901031843D4E9033633431843F6
:1016D00063691843A3691843E3691843236A1843ED
:1016E0000843616A042903D1D4E90B131943084361
:1016F000106020684069666A20F0070130460E439A
:10170000012704280CD1A06A0643E06A40B12046B4
:10171000FFF7F0F920B14020606584F83570BAE732
:10172000206846612046FFF7D1F994F85C203F21FC
:1017300091408160656584F835700020ACE7000059
:101740003F8010F070B5044600F00CF90546601CAF
:1017500002D004480078044400F004F9401BA04281
:10176000FAD370BD740000202DE9F84FDFF8BCA15A
:101770000022012503264FF00F090AF1040BAAF1FC
:10178000040E00BF0B6805FA02F42340A34270D197
:101790000F7907F00307012F01D0022F16D18768B8
:1017A0004FEA420806FA08FC27EA0C07D1F80CC0F9
:1017B0000CFA08FC4CEA070CC0F808C04768A743BD
:1017C0000C79C4F3001494403C4344600C79E44326
:1017D000A4070AD0C4684FEA420C06FA0CF7BC43CF
:1017E0008F6807FA0CF72743C7600C7904F00304ED
:1017F000022C12D1D40800EB840CDCF820405707EF
:10180000FF0E09FA07F824EA0804D1F8108008FA54
:1018100007F848EA0408CCF8208004684FEA420C34
:1018200006FA0CF7BC430F7907F0030707FA0CF729
:10183000274307604C6814F4403F70D03C4C276845
:1018400047F480472760246822F0030704F48044AB
:101850000094384C07EB040CDCF8084897074FEA73
:10186000177809FA08F7BC43334FB84202D1002772
:1018700024E054E0314FB84201D101271EE0304F3F
:10188000B84201D1022719E02E4FB84201D10327F7
:1018900014E02D4FB84201D104270FE02B4FB8427E
:1018A00001D105270AE02A4FB84201D1062705E0F9
:1018B000284FB84201D1072700E0082707FA08F7A8
:1018C0002743CCF80878DAF800405746D1F804C02E
:1018D0009C435FEACC2C00D51C433C60DBF8004005
:1018E0005F46D1F804C09C435FEA8C2C00D51C43B2
:1018F0003C60DEF800407746D1F804C09C435FEAC4
:101900008C3C00D51C433C60084F083F3C68D1F834
:1019100004C09C435FEACC3C00D51C433C60521C95
:10192000102AFFF42FAFBDE8F88F0000083C0140FB
:1019300044380240003001400000024000040240F0
:1019400000080240000C0240001002400014024057
:1019500000180240001C02400AB18161704709046E
:10196000FBE7000001488068704700007400002019
:101970000248816802781144816070477400002039
:101980000B4810B5016841F400710160016841F431
:1019900080610160016841F480710160032000F002
:1019A0009FF80F2000F006F800F050F8002010BD5E
:1019B000003C024030B505461F4887B0002401684E
:1019C00041F020010160006806A900F020000090AD
:1019D00001A800F04DFE0498A8B100F06FFE400091
:1019E0001649174AB0FBF1F11648491E026040F251
:1019F000E732C0E90324C0E90114846101F068F80A
:101A0000040003D015E000F059FEE9E70D4801F0AD
:101A10008DF804000DD1372000F034F8102D07D2D6
:101A200000222946372000F03BF80748056000E017
:101A3000012407B0204630BD4038024040420F002C
:101A40000014004080060020780000200C4882B07E
:101A5000016841F480410160006800F4804000901A
:101A60000748001F016841F08051016000680022B2
:101A700000F0805000900F21901E02B000F010B8CE
:101A800044380240002809DB00F01F020121914088
:101A90004009800000F1E020C0F80011704700000C
:101AA000F0B40E4B1B680C46C3F30223C3F10705C9
:101AB000042D00D90425191D072901D2002300E0B7
:101AC000DB1E012606FA05F1491E214099409E4081
:101AD000761E16403143F0BC03F0ADBE0CED00E0C5
:101AE000064900F0070208684FF6FF03184040EA75
:101AF0000220034A10430860704700000CED00E02C
:101B00000000FA0570470068416200207047F0B598
:101B10000368586A39B19C6A4FF4827600EB14442A
:101B200000204D1E0AE040EA024098620FE006EBFA
:101B30008007DF59401C04EB1744C0B2A842F6D31B
:101B400044EA02404FF4807202EB810158500020B9
:101B5000F0BDD0F8E00402F0ACBD01EBC10200EB37
:101B60008202D0F8E004126A02F0FDBC01EBC1026F
:101B700000EB8202D0F8E004D2F8602202F04FBD00
:101B8000D0F8E00402F097BD0A0601F00F0101EB66
:101B9000C10100EB810101D5143101E001F515719E
:101BA000006803F07DBC70B504460B0601F00F0021
:101BB00000EBC00104EB81014FF001024FF0000582
:101BC00002D54A75143103E081F8555201F51571BB
:101BD000087094F89404012808D084F894242068AC
:101BE00003F078F984F89454002070BD022070BD91
:101BF00070B5044601F00F002279904201D901200E
:101C000070BD0B0601F00F0101EBC10104EB810176
:101C10004FF001024FF0000502D54A75143103E080
:101C200081F8555201F515718D70087094F894047F
:101C3000012808D084F89424206803F0BDFA84F8C1
:101C40009454002070BD022070BD01F00F0101EB23
:101C5000C10100EB8100D0F8680270472DE9F04126
:101C600004460F0601F00F0000EBC00104EB8101F8
:101C70004FF001064FF0000502D54E75143103E018
:101C800081F8555201F51571C2F30A0208708A6095
:101C90000B714A7802B14883022B00D14D7194F840
:101CA0009404012809D084F89464206803F060F853
:101CB000284684F89454BDE8F0810220FBE710B573
:101CC00001F00F0404EBC40100EB8101C1E998238A
:101CD0000023C1F8683281F8553281F85442837983
:101CE00001F51571012B00D1CA618279006803F0FA
:101CF000BBFA002010BD70B504460D4601F00F0080
:101D00002179884201D9012070BD29064FF00006D3
:101D10004FF0010206D500EBC00104EB81014A75CA
:101D2000143107E005EBC50104EB810181F8556230
:101D300001F515718A70087094F89404012807D091
:101D400084F89424206803F063FA280702D007E09F
:101D5000022070BDA17904F29C42206803F000FAD1
:101D600084F89464002070BD10B501F00F0404EBFA
:101D7000C40100EB8101C1E9082300238B62012328
:101D80004B7501F8144F8379012B00D1CA61827918
:101D9000006803F069FA002010BD00002DE9FC5F27
:101DA00005680446284603F017FC00287DD120680A
:101DB00003F03EFC002878D0D5F80808C0F30D20C9
:101DC000C4F8D404206803F033FC800704D52068ED
:101DD000416901F002014161206803F029FCC1065C
:101DE00004F29C40009034D52068816921F01001F4
:101DF00081612F6A07F00F0000EBC00004EB800642
:101E0000C7F3434006F51576022802D0062811D004
:101E10001AE047F6F070074216D0C7F30A121746C9
:101E20002846F16803F008FCF0683844F0607069F7
:101E3000384408E008222846009903F0FDFB706949
:101E4000C7F30A11084470612068816941F01001EC
:101E50008161206803F0ECFB00034FF0080B4FF0AA
:101E6000000A4FF001097CD50026206803F0BFFB73
:101E7000074674E0F80770D0F1B2206803F0D0FB99
:101E80008046C00707D005EB4611C1F8089B3146D4
:101E9000204601F023FB5FEA087024D505EB4611CC
:101EA000C1F808BB2068016C00E023E200EB46109B
:101EB0000191D0F8082BFB4B994205D9110403D5A9
:101EC0004FF40041C0F8081B204600F0F6FAF5492F
:101ED0000198884207D9A079012804D120680121FE
:101EE000009A03F03DF95FEAC86004D505EB46119E
:101EF0001020C1F8080B5FEA88701DD568690006DC
:101F000005D5D5F8040840F48061C5F8041806EB3F
:101F1000C60004EB800090F8571200F515700129F7
:101F200005D180F803A0F1B2204600F0E9F905EBF5
:101F300046110220C1F8080B5FEA886004D505EB62
:101F400046102021C0F8081B5FEA884005D505EB44
:101F500046104FF40051C0F8081B7F08761C002F74
:101F600088D1206803F064FB40036ED5206803F03D
:101F700037FB0746002666E0F80762D0F1B220681A
:101F800003F03CFB8046C00723D006F00F01D5F8D4
:101F9000342809FA01F18A43C5F8342805EB4611C3
:101FA000C1F80899A07901280FD106EBC60004EB0F
:101FB0008000D0E907211144016236B9606A20B976
:101FC00020680121009A03F0CBF8F1B22046FFF718
:101FD000C4FD5FEA087003D505EB4611C1F808B9E6
:101FE0005FEAC86004D505EB46111020C1F8080966
:101FF0005FEA486004D505EB46104021C0F8081997
:102000005FEA887016D53146284603F0BAFA06EB27
:10201000C60004EB8000C17D1430012905D180F891
:1020200003A0F1B2204600F067F905EB461102204B
:10203000C1F808095FEA086003D53146204601F07F
:10204000B3FA7F08761C002F96D1206803F0F0FACF
:10205000002811DAD5F8040820F00101C5F80418A9
:1020600094F8CC0401282BD0204600F00BFA20680D
:10207000416901F000414161206803F0D9FA00058F
:102080000BD5D5F80808C00702D0204600F03EFA6C
:102090002068416901F400614161206803F0C8FAD9
:1020A000C00467D5D5F8040820F00100C5F804087D
:1020B0001021206803F065FA00214FF67F3220E0FE
:1020C00084F8CCA400212046FFF71CFDCFE700BF19
:1020D00005EB4110C0F80829D0F8003923F40013AB
:1020E000C0F80039C0F8082BD0F8003B23F40013E7
:1020F000C0F8003BD0F8003B43F00063C0F8003B61
:10210000491C20798842E3D8D5F81C0840F0011119
:10211000C5F81C18E07B002828460DD0D0F88408AC
:1021200040F00B01C5F88418D5F8440840F00B01C5
:102130002846C5F844180DE0D0F8140842F22B01E7
:102140000843C5F81408D5F8100840F00B012846DC
:10215000C5F81018D0F8000820F4FE61C5F8001882
:10216000A1792068009A02F0FBFF2068416901F420
:1021700080514161206803F05BFA800415D5206826
:1021800002F036FE206803F01AFAE07100F090FACF
:102190000146E279206803F0ADFA204600F05CF9D0
:1021A0002068416901F400514161206803F040FA60
:1021B000000707D5204600F069F92068416901F061
:1021C00008014161206803F033FA000616D5A869BA
:1021D00020F08001A96101260DE000BF06EBC600DA
:1021E00004EB800090F85702012803D1F1B2204699
:1021F000FFF7CAFC761C2079B042EFD8206803F0C4
:1022000017FAC0021FD501264F4614E005EB461011
:10221000D0F8000906EBC60104EB81010A7E012A11
:1022200008D1002806DACF75F0B240F080012046D0
:10223000FFF7AAFC761C2079B042E7D820684169F4
:1022400001F480114161206803F0F2F9800234D575
:1022500001204A4629E000BF05EB4011D1F8001BE0
:1022600000EBC00304EB830393F85862012E1BD1EB
:10227000002919DA94F8D464C1F3004106F001068C
:102280008E4211D183F85722A96941F08003AB61D6
:102290006969090608D4D5F8040840F40070C5F847
:1022A000040805E00A30544F401C21798142D3D8FC
:1022B0002068416901F400114161206803F0B8F918
:1022C000400007D52046FFF744FC2068416901F033
:1022D00080414161206803F0ABF940070AD52068CE
:1022E0004568680702D52046FFF74AFC2068416828
:1022F00029434160BDE8FC9FD0F8E00402F02DBA0C
:10230000D0F8E00402F03DBAF8B5040005D094F826
:1023100095042668002510B106E00120F8BD84F878
:102320009454204600F056F8032084F89504B6F142
:10233000A04F00D1A571206802F00CFF207C8DF821
:10234000000094E80F0002F061FD0226B8BB0021F6
:10235000206803F090F990BB002001270DE000BF3A
:1023600000EBC00104EB81014F750875C8850D763F
:10237000CD610D62401CC0B24D6221798142EFD81F
:10238000002011E000EBC00104EB810181F85552FF
:1023900081F8540281F85852C1F85C52C1F8605279
:1023A000401CC0B2C1F8645221798142EAD8207C35
:1023B0008DF8000094E80F0002F00EFE10B184F8D2
:1023C0009564AAE7657484F89574206802F0F6FDB8
:1023D0000020F8BD10B586B0044614216846FDF70C
:1023E00099FF2068B0F1A04F2FD119480021026851
:1023F00042F001020260006800F0010005904FF415
:10240000C05000900220CDE90101032003900A2072
:10241000049069460F48FFF7A7F90D48001D0168B1
:1024200041F0800101600A481430016841F48041A4
:1024300001600068002200F48040059005214320DF
:10244000FFF72EFB4320FFF71DFB06B010BD000079
:10245000303802400000024070B50446C0790125C2
:1024600070B1022801D0FEF7CAFB2946D4F8E00477
:1024700002F0F6F9D4F8E004BDE8704002F0AAB921
:102480000025F2E7D0F8E00402F0D3B9D0F8E00478
:1024900002F0D9B910B5044690F8940401280AD086
:1024A000012084F894046174206803F012F900207C
:1024B00084F8940410BD022010BDD0F8E02400F28E
:1024C0009C41104602F0D8B910B50446006894F853
:1024D0009414012909D0012184F89414C168490693
:1024E00009D5617B012902D005E0022010BD816B76
:1024F00041F480318163206803F021F8206802F004
:102500004FFD002084F8940410BD000010B504466F
:10251000D0F8E00402F0F2F92068D0F8001E41F093
:102520000101C0F8001EE07A002804D002480168CA
:1025300041F00601016010BD10ED00E02DE9F0470B
:102540000E46050065D0DFF81481D8F80000F7B218
:1025500000F00700B04207D288F80070D8F80000F9
:1025600000F00700B04254D128683D4C810712D5D5
:10257000400703D5206840F4E05020602878000729
:1025800003D5206840F4604020602068A96820F0EE
:10259000F000084320602878C0072DD030496868D3
:1025A0000839012812D0022813D0032811D0096855
:1025B000890700292DDA216821F0030101432160F8
:1025C000FFF7D0F9814641F2883A0EE009688903A5
:1025D000EFE709688901ECE7FFF7C4F9A0EB09010F
:1025E000514502D90320BDE8F0872068696800F0F2
:1025F0000C00B0EB810FEFD1D8F80010404601F08D
:102600000701B14207D90770006800F00700B04227
:1026100001D00120E7E72878400705D52068E96860
:1026200020F4E050084320602878000706D5206891
:10263000296920F4604040EAC100206000F05EF8A3
:102640002168084AC1F30311515CC840064908607B
:1026500006480068FFF7AEF90020C4E7003C0240DE
:1026600008380240E4810008800000207800002043
:102670000F2202600C4A136803F0030343601368DF
:1026800003F0F0038360136803F4E053C36012683F
:102690004FF4E05303EAD20202610448006800F0FC
:1026A000070008607047000008380240003C024004
:1026B0000148006870470000800000200448054978
:1026C00000680968044AC1F38221515CC840704720
:1026D0008000002008380240F481000804480549C1
:1026E00000680968044AC1F34231515CC840704730
:1026F0008000002008380240F4810008154810B519
:10270000006810F00C02144813D01449042A0FD0AA
:10271000082A0ED10F4C241F2268236802F03F02C2
:102720005B0207D52068C0F38810A0FB010106E01A
:10273000084610BD2168C1F38811A1FB00010023E8
:10274000FDF79EFD2168C1F30141491C4900B0FB22
:10275000F1F010BD083802400024F400001BB7005F
:102760002DE9F84F04006ED02078DFF84C93C007B5
:10277000A9F104054AD009F104000168C1F38101FF
:10278000012908D00068C0F3810002280AD1D9F8D5
:102790000000400206D52868800337D5606800280D
:1027A000E1D033E06068B0F5803F10D0B0F5A02FE5
:1027B000286810D020F480302860286820F4802019
:1027C00028606068A8B1FFF7CDF806460DE02868DC
:1027D00040F48030F4E740F480202860F7E700BF41
:1027E000FFF7C0F8801B642873D828688003F7D5EA
:1027F0000CE0FFF7B7F8064605E000BFFFF7B2F8B8
:10280000801B6428F0D828688003F7D42078DFF88C
:10281000AC8280074FF0000A3ED5A748001D016832
:1028200011F00C0F08D00068C0F3810002280BD112
:10283000D9F80000400207D42868800716D5E06860
:10284000012800D112E033E1E068B8B10120C8F8F6
:102850000000FFF787F8064605E000BFFFF782F8A3
:10286000801B0228C0D828688007F7D5286821690E
:1028700020F0F80040EAC10028600DE0C8F800A090
:10288000FFF770F8064604E0FFF76CF8801B02289B
:102890001FD828688007F7D42078000722D5864FF4
:1028A00087486169703771B101210160FFF75AF8FB
:1028B000064604E0FFF756F8801B022809D838685E
:1028C0008007F7D50EE0C0F800A0FFF74BF80646EA
:1028D00005E082E0FFF746F8801B02287DD83868C3
:1028E0008007F7D42078400768D5DFF8CCB10027FF
:1028F0000BF13C0BDBF80000C0000BD4DBF8001040
:1029000041F08051CBF80010DBF80000012700F007
:10291000805000906B4E3068C00510D4306840F491
:1029200080703060FFF71EF8009005E0FFF71AF89E
:102930000099401A022850D83068C005F6D55E4E7E
:10294000A0686C3601280FD00528306810D020F020
:1029500001003060306820F004003060A068B8B139
:10296000FFF700F800900FE0306840F00100F4E756
:1029700040F004003060F7E7FEF7F4FF0099411AD9
:1029800041F28830814266D830688007F4D50EE085
:10299000FEF7E8FF009007E0FEF7E4FF0099411A18
:1029A00041F28830814256D830688007F4D42FB184
:1029B000DBF8001021F08051CBF80010A069C8B3FB
:1029C0003D49091D0968C1F3810102294AD0022845
:1029D000504607D0C8F8600000E03CE0FEF7C2FFB8
:1029E00004463BE04746C8F86000FEF7BBFF0646DA
:1029F00005E000BFFEF7B6FF801B02282BD8286831
:102A00008001F7D4D4E907010843A16A2E4A490896
:102A100002EB0141626A41EA8211084394F82C10EA
:102A200040EA0161C9F8001001203866FEF79AFFFC
:102A3000044606E03EE000BFFEF794FF001B0228BC
:102A400009D828688001F7D534E000BFFEF78AFF77
:102A5000001B022802D90320BDE8F88F28688001F6
:102A6000F4D427E00128F7D0D9F80000E26900F497
:102A7000800191421CD1226A00F03F01914217D19E
:102A800047F6C071626A0140B1EB821F10D1A26AA1
:102A90004FF0FF3300F4403103EB5202B1EB024F31
:102AA00006D194F82C1000F07060B0EB016F01D0EB
:102AB0000120D1E70020CFE7043802400000474260
:102AC000800E4742007000400000FFFF70477047D3
:102AD00010B5040003D094F83D0010B107E00120C8
:102AE00010BD002084F83C00204600F01EF80220B3
:102AF00084F83D00211D206800F02CFF012084F89F
:102B0000460084F83E0084F83F0084F8400084F8D2
:102B1000410084F8420084F8430084F8440084F8BB
:102B2000450084F83D00002010BD704790F83D102E
:102B3000012901D001207047022180F83D10016871
:102B4000CA6842F00102CA6000681149884214D084
:102B5000B0F1804F11D00F4988420ED00E49884203
:102B60000BD00E49884208D00D49884205D00D4946
:102B7000884202D00C49884204D1816801F00701E3
:102B8000062903D0016841F001010160002070476F
:102B9000000001400004004000080040000C00401C
:102BA00000040140004001400018004070472DE93A
:102BB000F04104460068C66805694FF00007A907A0
:102BC00013D5B10711D5F91E0161012020772068C6
:102BD00080698007204602D0FFF7E8FF04E000F09C
:102BE0007EF8204600F07CF82777680716D5700736
:102BF00014D521686FF00400086102202077206856
:102C0000806910F4407F204602D0FFF7CFFF04E038
:102C100000F065F8204600F063F82777280715D5FF
:102C2000300713D521686FF0080008610420207771
:102C30002068C0698007204602D0FFF7B7FF04E094
:102C400000F04DF8204600F04BF82777E80616D53F
:102C5000F00614D521686FF0100008610820207775
:102C60002068C06910F4407F204602D0FFF79EFF25
:102C700004E000F034F8204600F032F82777E80747
:102C800008D0F00706D021686FF0010008612046E7
:102C900000F028F8280608D5300606D521686FF020
:102CA000800008612046FFF711FF680608D570060E
:102CB00006D521686FF040000861204600F01CF83E
:102CC000A8060AD5B00608D521686FF02000086173
:102CD0002046BDE8F041FFF7FABEBDE8F08170473D
:102CE0007047000000680349884201D1FEF740BEEA
:102CF00070470000001400407047704770470000A4
:102D0000F8B5016804460868CA684B6910F00F0FEF
:102D10004FF0000559D003F0010602F490773743D5
:102D200065D0C10705D0D10503D5616C41F0010123
:102D30006164410705D5D90703D0616C41F00201F8
:102D40006164810705D5D90703D0616C41F00401A6
:102D50006164010707D502F02001314303D0616CA3
:102D600041F008016164616C00293AD0800604D505
:102D7000900602D5204600F083FE20684069616C11
:102D8000C0F38010090700D460B3204600F051FE64
:102D900020684069400621D52068143050E8001FA3
:102DA00021F0400140E80012002AF5D1E06BA8B103
:102DB00072490165E06BFEF779FB002811D0E06BEA
:102DC000016D01B0BDE8F040084783060FD59306BA
:102DD0000DD52046BDE8F84000F052BE2046FFF772
:102DE0008DFFF8BD2046FFF789FF6564F8BD266BAF
:102DF0002023012E7ED1C6067CD5D6067AD508685A
:102E00004868009048694FF0020640064DD5E26BD5
:102E1000106840684FF480770004000C3AD0A18D10
:102E2000814237D9E085D069B8422DD020680C3076
:102E300050E8001F21F4807140E80012002AF5D10B
:102E40002068143050E8001F21F0010140E8001212
:102E5000002AF5D12068143050E8001F21F040010D
:102E600040E80012002AF5D184F84230256320683A
:102E70000C3050E8001F21F0100140E80012002A39
:102E8000F5D1E06BFEF7C9FA6663A08DE18D401ABB
:102E900081B206E0A18D8142A8D1D069B842A5D106
:102EA00066632046FFF729FFF8BDA08DE18D401A2B
:102EB00081B2E08D0028F7D00029F5D020680C30D1
:102EC00050E8002F22F4907240E80027002FF5D13F
:102ED0002068143050E8002F22F0010240E800275B
:102EE000002FF5D184F84230256320680C3050E87B
:102EF000002F00E006E022F0100240E80023002B43
:102F0000F3D1CDE705062BD5150629D594F8410058
:102F10002128C9D1A068B0F5805F01D12069B0B186
:102F2000206A411C2162216800784860E08C401EC4
:102F30000004000CE084B7D12068C16821F0800152
:102F4000C1602068C16841F04001C160F8BD206ADD
:102F50000088C0F308004860206A801C2062E5E712
:102F60004006F3D55006F1D5CA68204622F040024B
:102F7000CA6084F8413000F010F9F8BD253A000825
:102F800070B5040004D094F84100002510B106E0AB
:102F9000012070BD84F84050204600F023F8242022
:102FA00084F841002068C16821F40051C1602046C6
:102FB00000F0C8FD2068016921F49041016120689A
:102FC000416921F02A0141612068C16841F4005142
:102FD000C1606564202084F8410084F84200656384
:102FE000002070BD2DE9F04186B0064614216846E8
:102FF000FDF790F95F485E4FD6F800C05D49143880
:103000000222032307250024BC451BD10E6846F08D
:1030100010060E60096801F010010591016841F089
:10302000010101600068694600F001000590580246
:103030008DE81500CDE903354F48FEF795FB06B046
:10304000BDE8F081DFF834814FF48067C44539D1A1
:103050004849091FD1F800C04CF4802CC1F800C0C9
:10306000096801F480210591016841F004010160C3
:103070000068694600F0040005904FF440608DE858
:103080001500CDE903353E48FEF76EFB3E4D3D4849
:1030900028607804C5E90104C5E903476C61AC61A7
:1030A000EC612C6228466C62FEF7E2FA08B1FDF78B
:1030B000A6FDF563002205212720AE63FEF7F0FC94
:1030C000272051E0314DAC45B9D10D6845F02005C0
:1030D0000D60096801F020010591016841F040018F
:1030E00001600068694600F0400005904FF484409C
:1030F0008DE815000820CDE903302548FEF734FBA4
:10310000214D244860354FF020682860C5E90184CE
:10311000C5E903476C61AC61EC612C6228466C62C6
:10312000FEF7A6FA08B1FDF76AFDF563AE63164D2A
:103130001848C0357830E5E80208402091C51248AB
:1031400045F81449C030AC61EC612C626C62FEF74A
:103150008FFA08B1FDF753FDB56300220521472022
:10316000AE63FEF79DFC4720FEF78CFC67E700008E
:103170000010014044380240000002400048004076
:103180000008024028600240600500200014014051
:10319000001802402864024070477047FEE70000B4
:1031A000F0B500230A24302537261F4611E000BF62
:1031B000B4EB107F02D905EB107C01E006EB107C2C
:1031C00001F813C001EB430C00015B1C8CF801708B
:1031D000DBB29342ECD3F0BD0F4810B50D4901604E
:1031E0000321416000214FF410228160C0E90312E5
:1031F0004FF400124261017641768176C176017703
:103200004177FDF772FF002803D0BDE81040FDF7BD
:10321000F6BC10BD00640040380400200F4810B513
:103220000D4901600321416000214FF410228160AB
:10323000C0E903124FF400124261017641768176B3
:10324000C17601774177FDF750FF002803D0BDE834
:103250001040FDF7D4BC10BD0068004060040020A1
:10326000154808B5016841F400110160016801F4D6
:1032700000110091016841F48001016000680022A2
:1032800000F48000009005210C20FEF709FC0C20C2
:10329000FEF7F8FB002205213920FEF701FC39205A
:1032A000FEF7F0FB002205214520FEF7F9FBBDE803
:1032B00008404520FEF7E6BB3038024010B596B016
:1032C0001C2211496846FDF70CF80021684604F0FD
:1032D00082F90E4C0C491C2220601C3107A8FDF716
:1032E00000F8002107A804F076F9074960601C2265
:1032F00038310EA8FCF7F5FF00210EA804F06BF999
:10330000A06016B010BD00008881000800000020F9
:1033100070B586B014216846FCF7FCFF27480024EE
:10332000016841F002010160016801F002010591AC
:10333000016841F040010160016801F04001059120
:10334000016841F001010160016801F0010105918E
:10335000016841F008010160016801F00801059170
:10336000016841F004010160016801F00401059168
:10337000016841F0800101600068114E00F080009A
:103380004FF4E0550590002229463046FEF7E4FA56
:10339000202000904FF48810CDE9010469460948C7
:1033A000FEF7E2F901200095CDE9010469463046B7
:1033B0000394FEF7D9F906B070BD00003038024022
:1033C000001C0240000402400C4810B50A4901608C
:1033D0004FF4E1314160002181600C22C160C0E9FD
:1033E00004128161C161FFF7CBFD002803D0BDE865
:1033F0001040FDF704BC10BD0010014088040020FF
:103400000C4810B50A4901600B49416000218160F8
:103410000C22C160C0E904128161C161FFF7B0FDF7
:10342000002803D0BDE81040FDF7E9BB10BD000047
:1034300000480040D0040020A08601000C4810B5D0
:103440000A4901600B494160002181600C22C16082
:10345000C0E904128161C161FFF792FD002803D029
:10346000BDE81040FDF7CBBB10BD000000140140CB
:103470001805002000093D0010B500220F49104832
:1034800001F04CF808B1FDF7BAFB0E490C4801F009
:1034900061FA08B1FDF7B3FB0B49094800F006FEDD
:1034A00008B1FDF7ACFB064801F0D8FA002803D0BC
:1034B000BDE81040FDF7A3BB10BD000010000020C8
:1034C000C80600204401002060000020FEE7FEE75F
:1034D0000148FEF763BC0000C41D00202DE9F04147
:1034E00003680D4604461E6C03EB4511D1F8080B2A
:1034F00094F806E04FF400474FF0200C04F29C4291
:10350000BEF1010F09D0DFF898E0764539D1020409
:1035100032D500BFC1F8087B3FE0224B5FEA007E56
:1035200004D59E4239D90004F4D436E05FEA806EB7
:1035300002D5C1F808CB30E010F0280F2DD19E4203
:1035400001D90004E6D405EBC50004EB8000D1F8F6
:10355000101BD0F87432C1F31201591AC0F8681266
:1035600000F51570ADB903691BB1C2681144C160A3
:103570000FE0012120680AE080060AD5C1F808CBD7
:1035800007E035B9D4F8640218B90021184601F0F3
:10359000E7FDE9B22046FEF7E9FA0020BDE8F08138
:1035A0000A31544F0A30544F2DE9F84F0E4601EBC3
:1035B000C60100EB810481460568D4E90910143482
:1035C000884202D90120BDE8F88F081AA16881421B
:1035D00000D20846C01C870805EB46181BE000BF58
:1035E000A0EB010AA068504500D282460AF1030010
:1035F000870899F8060000901FFA8AF3F2B228466D
:10360000E16802F0EBF8E16801EB0A00E060616953
:1036100001EB0A006061D8F8180980B2B84205D3FE
:10362000D4E90401814201D20028D9D1D4E90401AE
:10363000884208D806F00F0101208840D5F83418D8
:103640008143C5F834180020BDE7000010B50446DA
:103650002DED028BB0EE608AF0EE408A2830FDF747
:1036600087FADFED330A20EE201A38EE680A84ED7F
:103670000B1A84ED060AD4ED050AB0EEC00AB4EECA
:10368000E00AF1EE10FA03D29FED2A0A84ED060A51
:10369000D4ED010A94ED060AD4ED081A60EE800A12
:1036A00040EE811AC4ED081AD4ED040AF4EEE01AD3
:1036B000F1EE10FA01DDC4ED080AD4ED081AF1EEBE
:1036C000600AF4EEE01AF1EE10FA01D2C4ED080A35
:1036D000D4ED070AD4ED021A70EE600A60EEA11A6A
:1036E000C1EE810A94ED081AD4ED001A01EE801A99
:1036F00031EE201A84ED091AD4ED030AB4EEE01A73
:10370000F1EE10FA01DDC4ED090A94ED091AF1EEAB
:10371000600AB4EEE01AF1EE10FA01D2C4ED090A23
:1037200084ED070A94ED090ABDEC028B10BD000080
:1037300000007A440000000010B504462DED048B13
:10374000F0EE418AB0EE609AB0EE408A2830FDF784
:103750000FFADFED370AB0EE681A20EE200AF0EE1D
:10376000480A84ED0B0AB0EE490A03F0DDFE84ED51
:10377000060AD4ED050AB0EEC00AB4EEE00AF1EE96
:1037800010FA03D29FED2B0A84ED060AD4ED010A4C
:1037900094ED060AD4ED0B1A94ED081A60EE800A37
:1037A00000EEA11A84ED081AD4ED040AB4EEE01A72
:1037B000F1EE10FA01DDC4ED080A94ED081AF1EEFD
:1037C000600AB4EEE01AF1EE10FA01D2C4ED080A74
:1037D000D4ED070A94ED021A70EE600A20EE811A09
:1037E000C1EE210A94ED081AD4ED001A01EE801AF8
:1037F00031EE201A84ED091AD4ED030AB4EEE01A72
:10380000F1EE10FA01DDC4ED090A94ED091AF1EEAA
:10381000600AB4EEE01AF1EE10FA01D2C4ED090A22
:1038200084ED070A94ED090ABDEC048B10BD00007D
:1038300000007A440000000080EC060A00219FEDA1
:10384000070A80ED060A80ED070A80ED080A80ED80
:10385000090A816280ED0B0A704700000000000039
:103860000178407841EA00207047FFF705FE01200B
:1038700003F0A5FEFBE7000010B5502080F311888F
:10388000BFF34F8FBFF36F8F04F0B6FB18B104493D
:103890004FF080500860002080F3118810BD0000B8
:1038A00004ED00E030B593B030216846FCF732FDFE
:1038B00014210CA8FCF72EFD1D480025016841F0DD
:1038C00080510160006800F0805011901948016833
:1038D00041F4804101600068022400F480401190AE
:1038E00001200090000401908001CDE906400620EF
:1038F0000890A820CDE9090407200B906846FEF740
:103900002FFF08B172B6FEE70CA90F2081E8310045
:103910004FF4A0500F904FF48050109005210CA848
:10392000FEF70CFE002801D072B6FEE713B030BDE2
:1039300040380240007000400248016841F47001C4
:103940000160704788ED00E00148FFF730B90000E2
:1039500080060020F0B50268274B284D284E294FDD
:10396000294C4FF0804C984209D0604507D0A842BE
:1039700005D0B04203D0B84201D0A04204D122F019
:10398000700E4A6842EA0E0298421BD0604519D078
:10399000A84217D0B04215D0B84213D0A04211D0DF
:1039A0001A4DA8420ED01A4DA8420BD0194DA8426C
:1039B00008D0194DA84205D0184DA84202D0184D84
:1039C000A84203D122F44075CA682A434D6922F007
:1039D00080022A438D68C5620D688562984201D0D5
:1039E000A04201D109690163016841F0040101604D
:1039F000012141610260F0BD00000140000400406F
:103A000000080040000C004000040140004001405C
:103A1000004401400048014000180040001C0040E4
:103A20000020004010B5806B0021C185FFF766F9CA
:103A300010BD01680C3151E8002F22F4907241E86A
:103A40000023002BF5D10168143151E8002F22F03A
:103A5000010241E80023002BF5D1016B012909D1B6
:103A600001680C3151E8002F22F0100241E80023D8
:103A7000002BF5D1202180F842100021016370470E
:103A800008B590F84210222901D0022008BD8268B2
:103A90004FF480539A4201D1016921B1816A9A425F
:103AA0001BD04AB10AE00268816A5268C2F3080278
:103AB0000A80816A891C08E0026972B10268526852
:103AC00002F07F020A70816A491C8162C18D491E21
:103AD0000904090CC18503D01BE002685268F1E7B4
:103AE0000168CA6822F02002CA600168CA6822F42C
:103AF0008072CA6001684A6922F001024A6120218D
:103B000080F8421000214163026B012A03D0FFF7C5
:103B100043FB002008BD016301680C3151E8002F10
:103B200022F0100241E80023002BF5D101680A6859
:103B3000D20602D50A6849680091818DFFF7DDF849
:103B4000E7E7000070B5044600680169E26821F407
:103B50004051114301612169A068E269084361692C
:103B6000114308432168CA6849F20C639A4302432F
:103B7000CA6020684169A26921F440711143416122
:103B800031492068884202D03049884202D1FEF78C
:103B9000A5FD01E0FEF792FDE269002319216425ED
:103BA0003226B2F5004F626828D0A0FB0101930FC6
:103BB0009200FCF765FB0146B0FBF5F06FF01802D0
:103BC000504301EB800006EB0010B0FBF5F000F075
:103BD000F002B1FBF5F002EB0012B1FBF5F06FF073
:103BE0001803584301EB800006EB0010B0FBF5F022
:103BF00000F00F0021681044886070BDA0FB010137
:103C000092185B41FCF73CFB0146B0FBF5F002016A
:103C1000B1FBF5F06FF01803584301EB800006EBA1
:103C2000C000B0FBF5F000F0F80002EB4002B1FB81
:103C3000F5F0584301EB800006EBC000B0FBF5F057
:103C400000F00700D6E7000000100140001401401A
:103C5000264818B400680168890604D501684068E0
:103C6000009018BC704722490968C906F9D5016857
:103C70004068204A0090106801684FF024030C034C
:103C80001D49046824F00104046016D410684468D7
:103C9000C4F12404A4B20C8043601068016841F4AC
:103CA000002101601068016841F001010160122CDF
:103CB000D7D1124901F1160015E014686068C0F10F
:103CC000240080B2088063600D498B6A23F40023CE
:103CD0008B6211680A6842F001020A601228C0D1A2
:103CE000064901F13A0018BC03F0CABED004002016
:103CF0000048004060050020D80100201C60002022
:103D0000006002400148FEF7FBBF000018050020DC
:103D10002DE9F0410C46D0F8D412D0F8C82200EBBF
:103D20008101D1F8C01229B304F00F0606EB860317
:103D300000EB830500276B694BB106EBC60602EB6F
:103D40008602D269B3FBF2F602FB1632A2B1C1F8C9
:103D50001472D0F8D42200EB8200D0F8C4020369B8
:103D60002BB1D1F80802224601F5047198470020D2
:103D7000BDE8F0810320FBE700231A4621466F616E
:103D800000F0C9FDF3E770B50546D0F8D40205EBA5
:103D90008000D0F8C04294B1284600F09BFCC4F8E3
:103DA0000C02D5F8D412D4F8040205EB8101D1F845
:103DB000C412CA6804F503719047002070BD032047
:103DC00070BD000070B5234D0446297800F0C2FB99
:103DD0002878002600F00F0000EB800004EB800044
:103DE00080F823606978204600F0B4FB687800F022
:103DF0000F0000EB800004EB800080F86361A9787D
:103E0000204600F0A7FBA87800F00F0000EB800030
:103E100004EB800080F82360C661D4F8D40204EB80
:103E20008000D0F8C01299B1D0F8C4024068804731
:103E3000D4F8D40204EB8000D0F8C00200F092FF66
:103E4000D4F8D40204EB8000C0F8C062C4F8BC62AD
:103E5000002070BDF000002010B5D0F8D41200EBA7
:103E60008100D0F8C04284B1D0F8C41259B194F89E
:103E70000002FF2807D08B6894F80122214698475A
:103E8000FF2084F80002002010BD032010BD0000B8
:103E90000A21018000487047F400002070B50646F2
:103EA00082210C4800F0D9FA05460121094800F0AA
:103EB000D4FA04468121074800F0CFFA0DB1102151
:103EC000A971402104B1A18000B1818043203080DC
:103ED000004870BD0001002070B5064682210D48E3
:103EE00000F0BBFA054601210A4800F0B6FA044684
:103EF0008121084800F0B1FA0DB11021A9714FF4E9
:103F0000007104B1A18000B181804320308001485C
:103F100070BD00000001002070B5064682210C48EB
:103F200000F09BFA05460121094800F096FA044684
:103F30008121074800F091FA0DB11021A9714021AB
:103F400004B1A18000B1818043203080004870BD61
:103F5000000100202DE9F04704464FF4077528467C
:103F600000F002FF06004FF0000865D02946FCF77C
:103F7000D1F9D4F8D4023E4D04EB80004FF0100983
:103F8000C0F8C062C4F8BC62207C4FF4007A0127FC
:103F9000E8B3402302222978204600F006FC287866
:103FA000402300F00F0000EB800004EB800080F85D
:103FB000237002226978204600F0F7FB6878082316
:103FC00000F00F0000EB800004EB8000032280F87B
:103FD0006371A978204601F00F0101EB810104EB28
:103FE0008101C1F81C90A97800F0DFFBA87800F0EF
:103FF0000F0000EB800004EB800080F82370C6F80F
:104000000482D4F8D402474604EB800000E01BE0B1
:10401000D0F8C40206F50176006880473761776101
:1040200032687AB1207C00B340236978204600F0E2
:10403000C8FB0020BDE8F087D4F8D41204EB81015E
:10404000C1F8C0820220F5E75346022229782046B3
:1040500000F0ABFB2878534600F00F0000EB800027
:1040600004EB800080F82370A3E75346DDE70000EF
:10407000F000002010B5D0F8D41200EB8101D1F887
:10408000C01259B1027C084C002AD1F8042207D092
:104090004023617800F095FB002010BD032010BD87
:1040A0004FF40073F5E70000F000002039B1D0F8BC
:1040B000D42200EB8200C0F8C41200207047032015
:1040C0007047D0F8D42200EB8200D0F8C00218B1BB
:1040D000C0F804120020704703207047D0F8D43293
:1040E00000EB8300D0F8C00228B1C0F81022C0F85D
:1040F000081200207047032070472DE9FC41064656
:10410000D0F8D4020C4606EB80000021D0F8C07233
:104110008DF80010ADF804100D4637B1217811F07C
:1041200060022FD0202A4BD102E00320BDE8FC81A1
:10413000E288F2B109060DD5D0F8C4026378394699
:10414000D0F808C01846E047E288072A00D90722BD
:1041500039462DE0607887F80002E088402800D3D7
:104160004020C2B287F801223946304600F058F8A4
:104170002BE0D0F8C40263780022866821461846F6
:10418000B04722E0607830B101281ED00A2809D05B
:104190000B2815D110E096F89C02032810D10222BA
:1041A00001A905E096F89C02032809D1012269467D
:1041B000304600F051F808E096F89C02032804D03D
:1041C0002146304600F021F803252846AEE710B519
:1041D000D0F8B82200245268904700B1032420464A
:1041E00010BD0020704700207047134610B50A46E6
:1041F000002100F0E6FA002010BD134610B50A4673
:10420000002100F088FB002010BD10B5044680217D
:1042100000F062FB2046BDE81040002100F05CBBCE
:1042200010B50323C0F89432C0F85421C0F85821C7
:104230001346C0F864110A46002100F0C2FA0020BB
:1042400010BD10B50521C0F8941200231A46194676
:1042500000F0B7FA002010BD10B50223C0F8943268
:1042600042618261134641620A46002100F053FB1D
:10427000002010BD10B50421C0F8941200231A4686
:10428000194600F048FB002010BD000010B50A469A
:10429000024903A000F00FF9004810BDA409002056
:1042A00043444320436F6E66696700001220088014
:1042B000004870473000002010B50A46024903A0AC
:1042C00000F0F9F8004810BDA40900204344432041
:1042D000496E7465726661636500000004200880A1
:1042E000004870472C00002010B50A46024903A080
:1042F00000F0E1F8004810BDA409002053544D69B6
:1043000063726F656C656374726F6E6963730000CE
:1043100010B50A46024903A000F0CDF8004810BDD0
:10432000A409002053544D333220566972747561CC
:104330006C20436F6D506F727400000010B51A202E
:1043400008800A480168001D0468001D00680818FC
:1043500009D008220649FEF723FF0549042210313F
:104360002046FEF71DFF0248801E10BD107AFF1F79
:1043700046000020F8B504460020ADF8000048884B
:104380000D46010A08295FD2DFE801F05E04091733
:104390005E5E3C45D4F8B412207C0A6819E0207CAB
:1043A00002260028D4F8B80205D0C16A68468847BA
:1043B0000146467039E0816AF8E7C0B2062843D268
:1043C000DFE800F0030A1014181CD4F8B4024268A5
:1043D00005E0694690471CE0D4F8B402826892B3C5
:1043E000207CF6E7D4F8B402C268F8E7D4F8B40247
:1043F0000269F4E7D4F8B4024269F0E7D4F8B402F1
:104400008269ECE7207CF0B9D4F8B802416B6846C9
:104410008847014609E0207CA8B9D4F8B802016BAE
:1044200068468847014607204870EA888AB1BDF887
:10443000000040B1824200D90246ADF8002020467B
:10444000FFF70AFFF8BDFFE729462046FFF7DDFE2C
:10445000F8E72046FFF70EFFF4E778B50E464288EE
:104460000178002504468A4212D9ADF800100AE00E
:10447000694600F019F84178052904D1817805468C
:10448000B14205D000256188BDF800209142EFD8E7
:10449000284678BD0146002002E0401CC0B2491CFD
:1044A0000A78002AF9D170470A8803781A440A80EA
:1044B00001780844704770B516460D46002820D094
:1044C0000446FFF7E7FF022101EB40014FF40070C3
:1044D000814204D82046FFF7DDFF4000801C308079
:1044E00030782870032068700220002206E02954EA
:1044F000401CC0B22A54401CC0B2641C2178002960
:10450000F5D170BD01004FF0000004D0012901D0A9
:10451000022901D0032070470120704778B10023A1
:10452000C0F8B832C0F8C432C0F8D03209B1C0F80F
:10453000B412012180F89C12027000F0CFB8032061
:10454000704710B5D0F8C802FDF752FBBDE8104027
:10455000FFF7D8BF10B5D0F8C802FDF724FBBDE8BF
:104560001040FFF7CFBF70B50446002521B194F885
:104570009C02032846D050E0D4F8941204F11400B1
:10458000022939D1818942688A420AD9511A416087
:10459000828901691144016142682046FFF72DFEBE
:1045A0000FE0914214D10068884211D3D4F89812D8
:1045B00088420DD2002211462046FFF71EFEC4F8A5
:1045C000985200231A461946204600F0FAF813E0E4
:1045D00094F89C02032808D1D4F8B802C16821B12C
:1045E000C4F8D452C168204688478021204600F094
:1045F00073F92046FFF725FE94F8A00268B184F80D
:10460000A0520AE0D4F8B802426932B1C4F8D452D8
:10461000426920469047002800D1002070BD10B5A7
:104620000446002221B194F89C02032834D03EE0D5
:10463000D4F8941204F5AA70032938D1818943680B
:104640008B420ED9591A4160828901691144016176
:1046500042688089824200D802462046FFF7C5FDA5
:1046600025E094F8AA0210F01F0003D0012802D020
:10467000022800D0002294F89C02032808D1D4F824
:10468000B802016921B1C4F8D422016920468847E3
:104690002046FFF7EFFD0AE0D4F8B802836933B192
:1046A000C4F8D422826920469047002800D1002017
:1046B00010BD0020704710B50024012180F89C1225
:1046C000D0F8B82222B152680179904700B1032492
:1046D000204610BDD0F8C802FDF7B7BA10B5017872
:1046E00039BB15490222C1F8E004C0F8C8124FF0E6
:1046F000A040086004200871CA71002088714A72C5
:104700008872C87208738873C8730846FDF7FCFD89
:1047100008B1FCF774FA80210748FDF7F4F940224C
:1047200000210548FDF7F3F9802201210248FDF739
:10473000EEF9002010BD0000C41D00200A0601F0A3
:104740007F01D0F8C80201EBC10100EB810001D567
:10475000807D704790F85602704710B5D0F8D4228B
:1047600000EB8202D2F8B82222B190F89C32032BDF
:1047700002D004E0032010BD126A02B1904700206D
:1047800010BD10B5D0F8D42200EB8202D2F8B822C6
:1047900022B190F89C32032B02D004E0032010BD1C
:1047A000526A02B19047002010BD10B51C46134656
:1047B000D0F8C8022246FDF751FABDE81040FFF7D5
:1047C000A1BE10B5D0F8C802FDF779FABDE81040D7
:1047D000FFF798BE2DE9F04100260125044680F838
:1047E0009C52C4F894626660C4F8A46280F8A06227
:1047F000D0F8B80230B1426822B10021204690477B
:1048000000B103260022402311462046FFF7CDFFCA
:10481000402784F86351A4F860713B460022802150
:104820002046FFF7C2FF84F8235027843046BDE8B6
:10483000F08190F89C12042903D190F89D1280F821
:104840009C120020704710B590F89C12032905D1E6
:10485000D0F8B81211B1C96901B18847002010BD64
:1048600001740020704710B5D0F8C802FDF712FEA1
:10487000BDE81040FFF746BE70B5044600F2AA201E
:10488000054600F051F80120C4F89402B4F8B002D3
:10489000C4F8980294F8AA0210F01F010AD0012966
:1048A0000ED0022912D000F080012046BDE87040F1
:1048B00000F012B829462046BDE8704000F0D0B89C
:1048C00029462046BDE8704000F013BA294620462C
:1048D000BDE8704000F05AB910B5D0F8C802FDF735
:1048E0000AFABDE81040FFF70DBE10B5D0F8C802B7
:1048F000FDF7EAFDBDE81040FFF704BE90F89C12FA
:10490000042903D090F89C1280F89D12042180F8AD
:104910009C120020704710B5D0F8C802FDF724FAA9
:10492000BDE81040FFF7EEBD70B5054611F8010B6C
:104930002870087868704C1C2046FEF791FF68804C
:10494000A41C2046FEF78CFFA880A01CFEF788FF61
:10495000E88070BD38B504460020ADF80000A1B174
:10496000C4F8B812D4F8D40204EB8000D0F8B8022E
:10497000C16A19B168468847C4F8D002D4F8D80291
:10498000401CC4F8D802002038BD032038BD0246C0
:104990000020D2F8B832002B02D01B68104618470E
:1049A000704700002DE9F04188462B4E897800259C
:1049B00004463170012906D941462046FFF725FCFF
:1049C0000320BDE8F08194F89C02022702280CD055
:1049D00003281DD041462046FFF717FC31782046BA
:1049E000FFF7F5FB03252846EBE789B32046616016
:1049F000FFF7CDFF050004D041462046FFF705FC38
:104A00001DE02046FFF736FC032084F89C02EAE70D
:104A1000C1B1606888421BD0C1B22046FFF7D7FB06
:104A2000317820466160FFF7B2FF050010D04146A3
:104A30002046FFF7EAFB21792046FFF7C8FB84F800
:104A40009C72D0E784F89C7220466160FFF7BFFB40
:104A50002046FFF70FFCC6E7EC000020FFF745BF3C
:104A60002DE9F0410A78002512F060020CD0202ACE
:104A700001D0402A7DD1D0F8D42200EB8202D2F8B6
:104A8000B8229268904731E04B78002201260A2B29
:104A90006FD2DFE803F041666E586E08056E2D296F
:104AA000FFF768FC67E004468888D8B9C888C8B9A9
:104AB0004888802816D200F07F0794F89C020328CB
:104AC00010D084F89E7239462046FFF7CCFE20466F
:104AD000FFF7D0FB1FB1022084F89C024BE084F862
:104AE0009C6248E0204644E0FFF75CFF054642E058
:104AF000CB88012B3DD190F89C32012B04D0022BA6
:104B000002D0032B35D104E08260012200F10801BC
:104B100016E00122011D13E090F89C22012A03D027
:104B2000022A01D0032A24D1CA88022A21D1C660D0
:104B3000D0F8A41209B10321C160022200F10C01D6
:104B4000FFF78AFB17E04A88012A02D0022A03D025
:104B50000FE0C0F8A46216E08988090A80F8A01264
:104B600011E090F89C32012B08D0022B06D0032BC9
:104B700004D0FFF74AFB2846BDE8F08149880129A7
:104B8000F9D1C0F8A422FFF775FBF4E72DE9F04155
:104B9000054608780C790E464FF0000810F06000CA
:104BA0000BD0202801D040286BD121462846FFF7A2
:104BB00018FBFF2800D0D8B398E07078C8B301285C
:104BC00024D003285DD195F89C02022802D0032846
:104BD00057D10CE0002C54D0802C52D021462846CE
:104BE000FFF77AFE80212846FFF776FE7EE0708888
:104BF00040B93CB1802C05D0C88818B92146284658
:104C0000FFF76AFE2846FFF735FB6FE095F89C0238
:104C10000228DFD0032866D1708888BB600603D0E5
:104C200021462846FFF78DFC2846FFF723FBBCE70B
:104C300000E00AE0C5F8D402D5F8B8028268FAB1FB
:104C4000314628469047804650E095F89C02002760
:104C5000022802D0032846D114E00CB1802C42D1A6
:104C6000200604F07F0000EB800005EB800101D5F9
:104C7000143101E001F5AA71022201F80E7F2EE045
:104C800034E030E0200604F00F0000EB800005EB7C
:104C900080000AD590F8230028B304F07F0000EBD1
:104CA000800005EB800614360AE090F86301D0B16D
:104CB00004F07F0000EB800005EB800606F5AA7685
:104CC0004CB1802C07D021462846FFF737FD10B1A4
:104CD0000120B07300E0B773022206F10E012846EE
:104CE000FFF7BAFA02E02846FFF78FFA4046BDE820
:104CF000F08170B50546087800240E4610F060007B
:104D000003D0202801D0402827D195F89C02012803
:104D100003D0022801D003281FD1B088C1B20129D5
:104D20001AD8C1B22846FFF75EFAFF280CD058B94E
:104D3000D5F8B8128A683AB1C5F8D4028A68314603
:104D400028469047044600E00324F088204307D11A
:104D50002846FFF78FFA03E031462846FFF755FA59
:104D6000204670BD7047000000487047A41B00201B
:104D700070B50A78012302F00F054E78AB401B4C4A
:104D8000D0F81C58012E17D045EA0343C0F81C3850
:104D900000EB4210D0F8002B12040BD4D0F8002BFB
:104DA0000B890979C3F30A031A4344EA81410A4390
:104DB000C0F8002B002070BD9BB21D43C0F81C58EA
:104DC00000EB4210D0F800391B04F3D4D0F80039BE
:104DD0000D890979C5F30A0589042B4341EA8251FB
:104DE0000B432343C0F80039E4E7000000800010C3
:104DF000D0F800196FF30A01C0F80019D0F80418B0
:104E000041F48071C0F804180020704770B50D4659
:104E10000446C2F3072104981E4601291BD0E0680E
:104E200040F04000E060204600F032F8C6F3072171
:104E30000029A16B26D021F48031A163C5F307417D
:104E4000012907D1A16841F00601A160A16841F0E4
:104E50002001A16070BDA16B21F48031A163E168E4
:104E60000A4A1140E160E16821F44011E160C0B2FA
:104E7000012803D1E06840F48010E060204600F093
:104E800007F8DBE741F48031D7E70000BFFFBDFF43
:104E900008B5002100914FF07061009A521C0092F9
:104EA0008A4210D80269002AF7DA0A220092521EBA
:104EB0000092FCD1026942F001020261009A521C88
:104EC00000928A4201D9032008BD0269D207F5D1B8
:104ED000002008BD30B54C780A78012300EB42125F
:104EE000012C2CD0D2F8004B002C0BDAD2F8004B5E
:104EF00044F00064C2F8004BD2F8004B44F0804408
:104F0000C2F8004BD0F83C580C7804F00F0403FAB8
:104F100004F425EA0444C0F83C48D0F81C48097859
:104F200001F00F018B4024EA0341C0F81C18D2F8AD
:104F3000000B19490840C2F8000B002030BDD2F820
:104F40000049002C0BDAD2F8004944F00064C2F8A2
:104F50000049D2F8004944F08044C2F80049D0F832
:104F60003C480D7805F00F0503FA05F5ADB2AC43EA
:104F7000C0F83C48D0F81C48097801F00F018B407C
:104F800099B28C43C0F81C48D2F800090349084084
:104F9000C2F80009D1E700000078F3EF007833ECA5
:104FA000D0F8001E21F00301C0F8001ED0F804184C
:104FB00021F00201C0F8041800207047D0F8001E4C
:104FC00021F00301C0F8001ED0F8041841F00201DE
:104FD000C0F80418002070472DE9F04F00250E4658
:104FE000044617462846294604EB8002C2F80411FD
:104FF000401C0F28F8D3C3F307405FEA000920469E
:1050000016D0806B20F40012A263A06B40F4002243
:10501000A263084688462146C4F8000EC7F307205D
:10502000012817D00846D1F8001841F0030118E014
:10503000D0F8040840F00202C4F80428A06B40F441
:105040000012A263A06B20F40022A263A06B20F4E4
:105050008022DDE7300E0846D1F8001801D041F07B
:105060000101C0F80018102100F08BFA00B10125F1
:10507000204600F06AFA00B101254046C4F81088C5
:10508000C4F81488C4F81C8800214FF0006B4FF05E
:10509000904E4FF67F3AF2B215E000BF04EB411399
:1050A000D3F800C9BCF1000F06DA11B1C3F800E96A
:1050B00004E0C4F800B901E0C3F80009C3F810091E
:1050C000C3F808A9491C8A42E8D8002115E000BFAE
:1050D00004EB4113D3F800CBBCF1000F06DA11B199
:1050E000C3F800EB04E0C4F800BB01E0C3F8000B18
:1050F000C3F8100BC3F808AB491C8A42E8D8D4F8AF
:10510000101821F48072C4F81028A0616FF080405C
:105110006061C6F3074018B9A06940F01000A061B3
:10512000A0690A490843A061C7F3074018B1A06904
:1051300040F00800A061B9F1010F03D1A069044952
:105140000843A0612846BDE8F08F000000383C808D
:1051500004000040816821F0010181600020704757
:1051600010B5036C134CA34203D9D0F8003B002BBD
:105170001EDB0023C0F8103BD0F8103B43F40023A3
:10518000C0F8103BD0F8103B43F01803C0F8103BB8
:10519000D0F8103B43F0C043C0F8103B012907D1C1
:1051A000C0F8142BD0F8001B41F08021C0F8001B80
:1051B000002010BD0A30544F4A780B78012A00EBCA
:1051C00043100BD0D0F8002B22F40012C0F8002BB3
:1051D0000979032914D0022912D017E0D0F8002948
:1051E00022F40012C0F800290979032901D002290C
:1051F0000CD1D0F8001941F08051C0F8001905E039
:10520000D0F8001B41F08051C0F8001B002070470F
:105210000A784B78D1B200EB4110012B12D0D0F8B4
:10522000001B002906DB2AB1D0F8001B21F08041C9
:10523000C0F8001BD0F8001B41F40011C0F8001B9F
:1052400000207047D0F80019002906DB2AB1D0F8F9
:10525000001921F08041C0F80019D0F8001941F47C
:105260000011C0F80019EBE7F8B50C784F788B4DBA
:10527000E3B26FF0604600EB4313012F29D0D3F85F
:10528000107B6FF31207C3F8107BD3F8107B2F400D
:10529000C3F8107B002C7DD00D69002D7BD08C686D
:1052A00025446D1EB5FBF4F5ADB26C430C62D3F82A
:1052B000104B06EAC5452C43C3F8104BD3F8104BEE
:1052C0000D6AC5F312052C43C3F8104B012A70D0A8
:1052D000CBE00F69EFB1D3F810796FF31207C3F881
:1052E0001079D3F810792F40C3F810790CB30F69F7
:1052F0008D682F447F1EB7FBF5F5D3F81079ADB25A
:1053000006EAC5463743C3F810790E79012E1CD042
:105310002AE0D3F810692E40C3F81069D3F8105969
:1053200045F40025C3F81059D3F810596FF312054E
:1053300020E00E698D68AE4200D90D61D0F8105999
:1053400045F40026C0F810690EE0D3F8106926F085
:10535000C046C3F81069D3F810694FF0C04707EA98
:1053600045752E43C3F81069D3F810590E69C6F37A
:1053700012063543C3F81059012A1BD000EB441321
:10538000D3F8004944F00444C3F800490C79012CD7
:1053900031D001E044E057E00A695AB3D0F834282C
:1053A000097801F00F03012199400A43C0F834281D
:1053B00071E056E0CA691AB100EB4413C3F814292E
:1053C000097901290ED1D0F80818C90500EB44115C
:1053D000D1F8002902D442F0005201E042F080529C
:1053E000C1F8002900EB4410D0F8001941F0044145
:1053F000C0F800194FE0D0F80848E405D3F8004998
:1054000002D444F0005401E044F08054C3F8004951
:1054100000920A8A93B20A78C96800F0DFF93AE08C
:105420000C690CB18C680C618C680C62D0F8105B54
:10543000C4F312042543C0F8105BD0F8104B44F4B9
:105440000024C0F8104B41E7D3F8104B8D68C5F32A
:1054500012052C43C3F8104BD3F8104B44F400242E
:1054600032E7CA680AB1C3F8142B097901290CD1B3
:10547000D0F80808C005D3F8000B02D440F0005063
:1054800001E040F08050C3F8000BD3F8000B40F06F
:105490000440C3F8000B0020F8BD0000FFFF07E048
:1054A00038B50022009213464D780A7842F2107403
:1054B00000EB4212012D19D0D2F8005B002D3CDA2E
:1054C000D2F8005B45F00065C2F8005B0A7800EB9B
:1054D0004212D2F8005B45F08045C2F8005B009AAA
:1054E000521C0092A24221D9012326E0D2F8005991
:1054F000002D22DAD2F8005945F00065C2F80059B3
:105500000A7800EB4212D2F8005945F08045C2F803
:105510000059009A521C0092A242E5D80A7800EB8A
:105520004212D2F80029002AF3DB06E00A7800EBE9
:105530004212D2F8002B002AD1DB184638BD816810
:1055400041F0010181600020704708B500214FF053
:1055500070620091009B5B1C009393420AD8036920
:10556000002BF7DA0091102101610099491C00918C
:10557000914201D9032008BD0169C906F5D4002074
:1055800008BD18B500224FF070630092009C641CA7
:1055900000949C420CD80469002CF7DA0092202277
:1055A00042EA811101610099491C0091994201D997
:1055B000032018BD01698906F5D4002018BDD0F874
:1055C000080810F0060004D0022803D0062801D0F5
:1055D0000F20704702207047406900F001007047BB
:1055E000D0F81818D0F81C08084080B27047D0F8DE
:1055F0001818D0F81C080840000C704710B5D0F8F7
:105600001038D0F8342801F00F0400EB4110E240CC
:1056100002F00102D0F8080943EAC212104010BD9E
:1056200000EB4111D1F8081BD0F81408084070476E
:10563000416980690840704730B5034608469408C0
:1056400002F00301002203F5805303E01D6840F8D7
:10565000045B521CA242F9D300290BD01C68002223
:10566000D50024FA05F3491E521C090400F8013B39
:10567000090CF5D130BD70B50446C068002520F096
:10568000C040E060012901D079B120E0E06840F03D
:105690000050E0600A20FCF755F860690A3510F008
:1056A000010F10D1C82DF5D30DE0E06840F0804027
:1056B000E0600A20FCF746F860690A3510F0010F37
:1056C00001D0C82DF5D3C82D01D0002070BD012018
:1056D00070BDD0F8002822F4FE62C0F80028D0F88F
:1056E00000284FF4FE6303EA01110A43C0F80028C2
:1056F00000207047022A3ED1264A274B0A449A428C
:1057000001D20F2138E0254A254B0A449A4201D2A2
:105710000E2131E0234A244B0A449A4201D20D2142
:105720002AE0224A224B0A449A4201D20C2123E069
:10573000204A214B0A449A4201D20B211CE01F4A05
:105740001F4B0A449A4201D20A2115E01D4A1E4B02
:105750000A449A420FD31D4A1D4B0A449A4201D271
:10576000082109E01B4A11441B4A914201D207213A
:1057700002E0062100E00921C26822F47052C260F2
:10578000C2684FF4705303EA81210A43C2600020CB
:1057900070470000405327FF00350C00401E1BFFE0
:1057A00040420F0000DC0BFF804F1200808CF9FE9E
:1057B00020D6130060B6E5FE60E3160000D3CEFEEF
:1057C00040771B00C05BB3FEC091210000CA91FE70
:1057D00020753800E05459FEE09C410010B5029C51
:1057E00074B9DB1C9C0800EB0230002300F58050EC
:1057F00004E000BF51F8042B02605B1CA342F9D304
:10580000002010BDFEE703B401984100009850EA63
:10581000C12018BF04204A0D18BF40F0010040F21B
:10582000FF72B2EB515F08BF40F00200012808BFD1
:10583000052002B070470907090E002804DB00F1BB
:10584000E02080F80014704700F00F0000F1E02025
:1058500080F8141D7047000070B59B482DED020BB9
:105860002DED068B079D25F00044A04218DC9748DB
:10587000844202DC0AD1069840B19DED060BBDECD6
:10588000068B02B0BDE8704001F046B9002DCCBFD8
:105890009FED8F0B9FED900BBDEC068B02B070BDA2
:1058A0008F48A04215DD8F48A042D8BF4FF0FF348B
:1058B00058DD9DED060B51EC100BFFF7A4FF0428FB
:1058C00008BF01F05DF99DED060BBDEC068B02B043
:1058D00070BD9DED060B51EC100B01F040FECDE9C3
:1058E000060181489FED828BA0423CDD8248A042A8
:1058F0001FDD00249FED82AB9DED060B53EC1A2BB0
:1059000051EC100BFAF711FD9DED060B41EC190B54
:1059100053EC1A2B51EC100BFAF7AEFD53EC182B8D
:10592000FAF7A4FD53EC192BFAF718FECDE906019E
:1059300049E09DED060B012453EC182B51EC100BA4
:10594000FAF7F3FC9DED060B41EC190B53EC182B09
:1059500051EC100BFAF78AFD53EC192BFAF7FEFD08
:10596000CDE906012FE06848A0421FDD02249FED2B
:10597000689B9DED060B53EC192B51EC100BFAF7BD
:105980007BFD53EC182BFAF7D0FC9DED060B41EC98
:10599000180B53EC192B51EC100BFAF767FD53EC75
:1059A000182BFAF7DBFDCDE906010CE09DED060BA7
:1059B000032453EC102B9FED580B51EC100BFAF70E
:1059C000CDFDCDE906019DED060B53EC102B51ECFE
:1059D000100BFAF751FD41EC180B53EC182BFAF7AA
:1059E0004BFD41EC190B4E480621B0EE490AF0EE92
:1059F000690A784400F0F9FF53EC182B51EC100BB6
:105A0000FAF73AFD41EC180B4648B0EE490AF0EEC1
:105A1000690A0521784400F0E8FF53EC192B51EC9A
:105A2000100BFAF729FD41EC100B51EC180B53EC5D
:105A3000102B002C0EDAFAF778FC9DED061B53ECC8
:105A4000112BFAF719FD9DED061B53EC112BFAF7FC
:105A500010FD35E0FAF769FC9DED061B53EC112BA8
:105A6000FAF70AFD41EC100B2F48784400EBC40014
:105A700090ED001B51EC100B53EC112BFAF7F6FCD8
:105A80009DED061B53EC112BFAF7F0FC41EC100BCB
:105A90002648784400EBC40090ED001B51EC100B3D
:105AA00053EC112BFAF7E5FC41EC100B002DA2BFD3
:105AB000BDEC068B02B070BD51EC100B81F00041C3
:105AC00041EC100B01E70000000010440000F07FE3
:105AD000182D4454FB21F93F182D4454FB21F9BFE4
